{
	"bank.sol": {
		"Bank": {
			"abi": [
				{
					"inputs": [
						{
							"internalType": "address",
							"name": "",
							"type": "address"
						}
					],
					"name": "balance",
					"outputs": [
						{
							"internalType": "uint256",
							"name": "",
							"type": "uint256"
						}
					],
					"stateMutability": "view",
					"type": "function"
				},
				{
					"inputs": [],
					"name": "deposit",
					"outputs": [],
					"stateMutability": "payable",
					"type": "function"
				},
				{
					"inputs": [],
					"name": "getBalance",
					"outputs": [
						{
							"internalType": "uint256",
							"name": "",
							"type": "uint256"
						}
					],
					"stateMutability": "view",
					"type": "function"
				},
				{
					"inputs": [
						{
							"internalType": "address",
							"name": "_to",
							"type": "address"
						},
						{
							"internalType": "uint256",
							"name": "_amount",
							"type": "uint256"
						}
					],
					"name": "transfer",
					"outputs": [],
					"stateMutability": "nonpayable",
					"type": "function"
				},
				{
					"inputs": [
						{
							"internalType": "uint256",
							"name": "_amount",
							"type": "uint256"
						}
					],
					"name": "withdraw",
					"outputs": [],
					"stateMutability": "nonpayable",
					"type": "function"
				}
			],
			"devdoc": {
				"kind": "dev",
				"methods": {},
				"version": 1
			},
			"evm": {
				"assembly": "    /* \"bank.sol\":26:793  contract Bank {\r... */\n  mstore(0x40, 0x80)\n  callvalue\n  dup1\n  iszero\n  tag_1\n  jumpi\n  0x00\n  dup1\n  revert\ntag_1:\n  pop\n  dataSize(sub_0)\n  dup1\n  dataOffset(sub_0)\n  0x00\n  codecopy\n  0x00\n  return\nstop\n\nsub_0: assembly {\n        /* \"bank.sol\":26:793  contract Bank {\r... */\n      mstore(0x40, 0x80)\n      jumpi(tag_1, lt(calldatasize, 0x04))\n      shr(0xe0, calldataload(0x00))\n      dup1\n      0x12065fe0\n      eq\n      tag_2\n      jumpi\n      dup1\n      0x2e1a7d4d\n      eq\n      tag_3\n      jumpi\n      dup1\n      0xa9059cbb\n      eq\n      tag_4\n      jumpi\n      dup1\n      0xd0e30db0\n      eq\n      tag_5\n      jumpi\n      dup1\n      0xe3d670d7\n      eq\n      tag_6\n      jumpi\n    tag_1:\n      0x00\n      dup1\n      revert\n        /* \"bank.sol\":94:188  function getBalance() external view returns(uint){\r... */\n    tag_2:\n      callvalue\n      dup1\n      iszero\n      tag_7\n      jumpi\n      0x00\n      dup1\n      revert\n    tag_7:\n      pop\n      tag_8\n      tag_9\n      jump\t// in\n    tag_8:\n      mload(0x40)\n      tag_10\n      swap2\n      swap1\n      tag_11\n      jump\t// in\n    tag_10:\n      mload(0x40)\n      dup1\n      swap2\n      sub\n      swap1\n      return\n        /* \"bank.sol\":291:546  function withdraw(uint _amount) external {\r... */\n    tag_3:\n      callvalue\n      dup1\n      iszero\n      tag_12\n      jumpi\n      0x00\n      dup1\n      revert\n    tag_12:\n      pop\n      tag_13\n      0x04\n      dup1\n      calldatasize\n      sub\n      dup2\n      add\n      swap1\n      tag_14\n      swap2\n      swap1\n      tag_15\n      jump\t// in\n    tag_14:\n      tag_16\n      jump\t// in\n    tag_13:\n      stop\n        /* \"bank.sol\":554:790  function transfer(address _to, uint _amount) public {\r... */\n    tag_4:\n      callvalue\n      dup1\n      iszero\n      tag_17\n      jumpi\n      0x00\n      dup1\n      revert\n    tag_17:\n      pop\n      tag_18\n      0x04\n      dup1\n      calldatasize\n      sub\n      dup2\n      add\n      swap1\n      tag_19\n      swap2\n      swap1\n      tag_20\n      jump\t// in\n    tag_19:\n      tag_21\n      jump\t// in\n    tag_18:\n      stop\n        /* \"bank.sol\":196:283  function deposit() external payable {\r... */\n    tag_5:\n      tag_22\n      tag_23\n      jump\t// in\n    tag_22:\n      stop\n        /* \"bank.sol\":47:85  mapping(address => uint)public balance */\n    tag_6:\n      callvalue\n      dup1\n      iszero\n      tag_24\n      jumpi\n      0x00\n      dup1\n      revert\n    tag_24:\n      pop\n      tag_25\n      0x04\n      dup1\n      calldatasize\n      sub\n      dup2\n      add\n      swap1\n      tag_26\n      swap2\n      swap1\n      tag_27\n      jump\t// in\n    tag_26:\n      tag_28\n      jump\t// in\n    tag_25:\n      mload(0x40)\n      tag_29\n      swap2\n      swap1\n      tag_11\n      jump\t// in\n    tag_29:\n      mload(0x40)\n      dup1\n      swap2\n      sub\n      swap1\n      return\n        /* \"bank.sol\":94:188  function getBalance() external view returns(uint){\r... */\n    tag_9:\n        /* \"bank.sol\":138:142  uint */\n      0x00\n        /* \"bank.sol\":161:168  balance */\n      dup1\n        /* \"bank.sol\":161:180  balance[msg.sender] */\n      0x00\n        /* \"bank.sol\":169:179  msg.sender */\n      caller\n        /* \"bank.sol\":161:180  balance[msg.sender] */\n      0xffffffffffffffffffffffffffffffffffffffff\n      and\n      0xffffffffffffffffffffffffffffffffffffffff\n      and\n      dup2\n      mstore\n      0x20\n      add\n      swap1\n      dup2\n      mstore\n      0x20\n      add\n      0x00\n      keccak256\n      sload\n        /* \"bank.sol\":154:180  return balance[msg.sender] */\n      swap1\n      pop\n        /* \"bank.sol\":94:188  function getBalance() external view returns(uint){\r... */\n      swap1\n      jump\t// out\n        /* \"bank.sol\":291:546  function withdraw(uint _amount) external {\r... */\n    tag_16:\n        /* \"bank.sol\":374:381  _amount */\n      dup1\n        /* \"bank.sol\":351:358  balance */\n      0x00\n        /* \"bank.sol\":351:370  balance[msg.sender] */\n      dup1\n        /* \"bank.sol\":359:369  msg.sender */\n      caller\n        /* \"bank.sol\":351:370  balance[msg.sender] */\n      0xffffffffffffffffffffffffffffffffffffffff\n      and\n      0xffffffffffffffffffffffffffffffffffffffff\n      and\n      dup2\n      mstore\n      0x20\n      add\n      swap1\n      dup2\n      mstore\n      0x20\n      add\n      0x00\n      keccak256\n      sload\n        /* \"bank.sol\":351:381  balance[msg.sender] >= _amount */\n      lt\n      iszero\n        /* \"bank.sol\":343:389  require(balance[msg.sender] >= _amount, \"aaa\") */\n      tag_32\n      jumpi\n      mload(0x40)\n      0x08c379a000000000000000000000000000000000000000000000000000000000\n      dup2\n      mstore\n      0x04\n      add\n      tag_33\n      swap1\n      tag_34\n      jump\t// in\n    tag_33:\n      mload(0x40)\n      dup1\n      swap2\n      sub\n      swap1\n      revert\n    tag_32:\n        /* \"bank.sol\":423:430  _amount */\n      dup1\n        /* \"bank.sol\":400:407  balance */\n      0x00\n        /* \"bank.sol\":400:419  balance[msg.sender] */\n      dup1\n        /* \"bank.sol\":408:418  msg.sender */\n      caller\n        /* \"bank.sol\":400:419  balance[msg.sender] */\n      0xffffffffffffffffffffffffffffffffffffffff\n      and\n      0xffffffffffffffffffffffffffffffffffffffff\n      and\n      dup2\n      mstore\n      0x20\n      add\n      swap1\n      dup2\n      mstore\n      0x20\n      add\n      0x00\n      keccak256\n      0x00\n        /* \"bank.sol\":400:430  balance[msg.sender] -= _amount */\n      dup3\n      dup3\n      sload\n      tag_35\n      swap2\n      swap1\n      tag_36\n      jump\t// in\n    tag_35:\n      swap3\n      pop\n      pop\n      dup2\n      swap1\n      sstore\n      pop\n        /* \"bank.sol\":442:454  bool success */\n      0x00\n        /* \"bank.sol\":468:478  msg.sender */\n      caller\n        /* \"bank.sol\":460:484  payable(msg.sender).call */\n      0xffffffffffffffffffffffffffffffffffffffff\n      and\n        /* \"bank.sol\":492:499  _amount */\n      dup3\n        /* \"bank.sol\":460:504  payable(msg.sender).call{value: _amount}(\"\") */\n      mload(0x40)\n      tag_37\n      swap1\n      tag_38\n      jump\t// in\n    tag_37:\n      0x00\n      mload(0x40)\n      dup1\n      dup4\n      sub\n      dup2\n      dup6\n      dup8\n      gas\n      call\n      swap3\n      pop\n      pop\n      pop\n      returndatasize\n      dup1\n      0x00\n      dup2\n      eq\n      tag_41\n      jumpi\n      mload(0x40)\n      swap2\n      pop\n      and(add(returndatasize, 0x3f), not(0x1f))\n      dup3\n      add\n      0x40\n      mstore\n      returndatasize\n      dup3\n      mstore\n      returndatasize\n      0x00\n      0x20\n      dup5\n      add\n      returndatacopy\n      jump(tag_40)\n    tag_41:\n      0x60\n      swap2\n      pop\n    tag_40:\n      pop\n        /* \"bank.sol\":441:504  (bool success, ) = payable(msg.sender).call{value: _amount}(\"\") */\n      pop\n      swap1\n      pop\n        /* \"bank.sol\":523:530  success */\n      dup1\n        /* \"bank.sol\":515:538  require(success, \"bbb\") */\n      tag_42\n      jumpi\n      mload(0x40)\n      0x08c379a000000000000000000000000000000000000000000000000000000000\n      dup2\n      mstore\n      0x04\n      add\n      tag_43\n      swap1\n      tag_44\n      jump\t// in\n    tag_43:\n      mload(0x40)\n      dup1\n      swap2\n      sub\n      swap1\n      revert\n    tag_42:\n        /* \"bank.sol\":291:546  function withdraw(uint _amount) external {\r... */\n      pop\n      pop\n      jump\t// out\n        /* \"bank.sol\":554:790  function transfer(address _to, uint _amount) public {\r... */\n    tag_21:\n        /* \"bank.sol\":648:655  _amount */\n      dup1\n        /* \"bank.sol\":625:632  balance */\n      0x00\n        /* \"bank.sol\":625:644  balance[msg.sender] */\n      dup1\n        /* \"bank.sol\":633:643  msg.sender */\n      caller\n        /* \"bank.sol\":625:644  balance[msg.sender] */\n      0xffffffffffffffffffffffffffffffffffffffff\n      and\n      0xffffffffffffffffffffffffffffffffffffffff\n      and\n      dup2\n      mstore\n      0x20\n      add\n      swap1\n      dup2\n      mstore\n      0x20\n      add\n      0x00\n      keccak256\n      sload\n        /* \"bank.sol\":625:655  balance[msg.sender] >= _amount */\n      lt\n      iszero\n        /* \"bank.sol\":617:663  require(balance[msg.sender] >= _amount, \"ccc\") */\n      tag_46\n      jumpi\n      mload(0x40)\n      0x08c379a000000000000000000000000000000000000000000000000000000000\n      dup2\n      mstore\n      0x04\n      add\n      tag_47\n      swap1\n      tag_48\n      jump\t// in\n    tag_47:\n      mload(0x40)\n      dup1\n      swap2\n      sub\n      swap1\n      revert\n    tag_46:\n        /* \"bank.sol\":696:699  _to */\n      dup2\n        /* \"bank.sol\":682:699  msg.sender != _to */\n      0xffffffffffffffffffffffffffffffffffffffff\n      and\n        /* \"bank.sol\":682:692  msg.sender */\n      caller\n        /* \"bank.sol\":682:699  msg.sender != _to */\n      0xffffffffffffffffffffffffffffffffffffffff\n      and\n      eq\n      iszero\n        /* \"bank.sol\":674:707  require(msg.sender != _to, \"ddd\") */\n      tag_49\n      jumpi\n      mload(0x40)\n      0x08c379a000000000000000000000000000000000000000000000000000000000\n      dup2\n      mstore\n      0x04\n      add\n      tag_50\n      swap1\n      tag_51\n      jump\t// in\n    tag_50:\n      mload(0x40)\n      dup1\n      swap2\n      sub\n      swap1\n      revert\n    tag_49:\n        /* \"bank.sol\":741:748  _amount */\n      dup1\n        /* \"bank.sol\":718:725  balance */\n      0x00\n        /* \"bank.sol\":718:737  balance[msg.sender] */\n      dup1\n        /* \"bank.sol\":726:736  msg.sender */\n      caller\n        /* \"bank.sol\":718:737  balance[msg.sender] */\n      0xffffffffffffffffffffffffffffffffffffffff\n      and\n      0xffffffffffffffffffffffffffffffffffffffff\n      and\n      dup2\n      mstore\n      0x20\n      add\n      swap1\n      dup2\n      mstore\n      0x20\n      add\n      0x00\n      keccak256\n      0x00\n        /* \"bank.sol\":718:748  balance[msg.sender] -= _amount */\n      dup3\n      dup3\n      sload\n      tag_52\n      swap2\n      swap1\n      tag_36\n      jump\t// in\n    tag_52:\n      swap3\n      pop\n      pop\n      dup2\n      swap1\n      sstore\n      pop\n        /* \"bank.sol\":775:782  _amount */\n      dup1\n        /* \"bank.sol\":759:766  balance */\n      0x00\n        /* \"bank.sol\":759:771  balance[_to] */\n      dup1\n        /* \"bank.sol\":767:770  _to */\n      dup5\n        /* \"bank.sol\":759:771  balance[_to] */\n      0xffffffffffffffffffffffffffffffffffffffff\n      and\n      0xffffffffffffffffffffffffffffffffffffffff\n      and\n      dup2\n      mstore\n      0x20\n      add\n      swap1\n      dup2\n      mstore\n      0x20\n      add\n      0x00\n      keccak256\n      0x00\n        /* \"bank.sol\":759:782  balance[_to] += _amount */\n      dup3\n      dup3\n      sload\n      tag_53\n      swap2\n      swap1\n      tag_54\n      jump\t// in\n    tag_53:\n      swap3\n      pop\n      pop\n      dup2\n      swap1\n      sstore\n      pop\n        /* \"bank.sol\":554:790  function transfer(address _to, uint _amount) public {\r... */\n      pop\n      pop\n      jump\t// out\n        /* \"bank.sol\":196:283  function deposit() external payable {\r... */\n    tag_23:\n        /* \"bank.sol\":266:275  msg.value */\n      callvalue\n        /* \"bank.sol\":243:250  balance */\n      0x00\n        /* \"bank.sol\":243:262  balance[msg.sender] */\n      dup1\n        /* \"bank.sol\":251:261  msg.sender */\n      caller\n        /* \"bank.sol\":243:262  balance[msg.sender] */\n      0xffffffffffffffffffffffffffffffffffffffff\n      and\n      0xffffffffffffffffffffffffffffffffffffffff\n      and\n      dup2\n      mstore\n      0x20\n      add\n      swap1\n      dup2\n      mstore\n      0x20\n      add\n      0x00\n      keccak256\n      0x00\n        /* \"bank.sol\":243:275  balance[msg.sender] += msg.value */\n      dup3\n      dup3\n      sload\n      tag_56\n      swap2\n      swap1\n      tag_54\n      jump\t// in\n    tag_56:\n      swap3\n      pop\n      pop\n      dup2\n      swap1\n      sstore\n      pop\n        /* \"bank.sol\":196:283  function deposit() external payable {\r... */\n      jump\t// out\n        /* \"bank.sol\":47:85  mapping(address => uint)public balance */\n    tag_28:\n      mstore(0x20, 0x00)\n      dup1\n      0x00\n      mstore\n      keccak256(0x00, 0x40)\n      0x00\n      swap2\n      pop\n      swap1\n      pop\n      sload\n      dup2\n      jump\t// out\n        /* \"#utility.yul\":7:146   */\n    tag_58:\n        /* \"#utility.yul\":53:58   */\n      0x00\n        /* \"#utility.yul\":91:97   */\n      dup2\n        /* \"#utility.yul\":78:98   */\n      calldataload\n        /* \"#utility.yul\":69:98   */\n      swap1\n      pop\n        /* \"#utility.yul\":107:140   */\n      tag_60\n        /* \"#utility.yul\":134:139   */\n      dup2\n        /* \"#utility.yul\":107:140   */\n      tag_61\n      jump\t// in\n    tag_60:\n        /* \"#utility.yul\":59:146   */\n      swap3\n      swap2\n      pop\n      pop\n      jump\t// out\n        /* \"#utility.yul\":152:291   */\n    tag_62:\n        /* \"#utility.yul\":198:203   */\n      0x00\n        /* \"#utility.yul\":236:242   */\n      dup2\n        /* \"#utility.yul\":223:243   */\n      calldataload\n        /* \"#utility.yul\":214:243   */\n      swap1\n      pop\n        /* \"#utility.yul\":252:285   */\n      tag_64\n        /* \"#utility.yul\":279:284   */\n      dup2\n        /* \"#utility.yul\":252:285   */\n      tag_65\n      jump\t// in\n    tag_64:\n        /* \"#utility.yul\":204:291   */\n      swap3\n      swap2\n      pop\n      pop\n      jump\t// out\n        /* \"#utility.yul\":297:559   */\n    tag_27:\n        /* \"#utility.yul\":356:362   */\n      0x00\n        /* \"#utility.yul\":405:407   */\n      0x20\n        /* \"#utility.yul\":393:402   */\n      dup3\n        /* \"#utility.yul\":384:391   */\n      dup5\n        /* \"#utility.yul\":380:403   */\n      sub\n        /* \"#utility.yul\":376:408   */\n      slt\n        /* \"#utility.yul\":373:375   */\n      iszero\n      tag_67\n      jumpi\n        /* \"#utility.yul\":421:422   */\n      0x00\n        /* \"#utility.yul\":418:419   */\n      dup1\n        /* \"#utility.yul\":411:423   */\n      revert\n        /* \"#utility.yul\":373:375   */\n    tag_67:\n        /* \"#utility.yul\":464:465   */\n      0x00\n        /* \"#utility.yul\":489:542   */\n      tag_68\n        /* \"#utility.yul\":534:541   */\n      dup5\n        /* \"#utility.yul\":525:531   */\n      dup3\n        /* \"#utility.yul\":514:523   */\n      dup6\n        /* \"#utility.yul\":510:532   */\n      add\n        /* \"#utility.yul\":489:542   */\n      tag_58\n      jump\t// in\n    tag_68:\n        /* \"#utility.yul\":479:542   */\n      swap2\n      pop\n        /* \"#utility.yul\":435:552   */\n      pop\n        /* \"#utility.yul\":363:559   */\n      swap3\n      swap2\n      pop\n      pop\n      jump\t// out\n        /* \"#utility.yul\":565:972   */\n    tag_20:\n        /* \"#utility.yul\":633:639   */\n      0x00\n        /* \"#utility.yul\":641:647   */\n      dup1\n        /* \"#utility.yul\":690:692   */\n      0x40\n        /* \"#utility.yul\":678:687   */\n      dup4\n        /* \"#utility.yul\":669:676   */\n      dup6\n        /* \"#utility.yul\":665:688   */\n      sub\n        /* \"#utility.yul\":661:693   */\n      slt\n        /* \"#utility.yul\":658:660   */\n      iszero\n      tag_70\n      jumpi\n        /* \"#utility.yul\":706:707   */\n      0x00\n        /* \"#utility.yul\":703:704   */\n      dup1\n        /* \"#utility.yul\":696:708   */\n      revert\n        /* \"#utility.yul\":658:660   */\n    tag_70:\n        /* \"#utility.yul\":749:750   */\n      0x00\n        /* \"#utility.yul\":774:827   */\n      tag_71\n        /* \"#utility.yul\":819:826   */\n      dup6\n        /* \"#utility.yul\":810:816   */\n      dup3\n        /* \"#utility.yul\":799:808   */\n      dup7\n        /* \"#utility.yul\":795:817   */\n      add\n        /* \"#utility.yul\":774:827   */\n      tag_58\n      jump\t// in\n    tag_71:\n        /* \"#utility.yul\":764:827   */\n      swap3\n      pop\n        /* \"#utility.yul\":720:837   */\n      pop\n        /* \"#utility.yul\":876:878   */\n      0x20\n        /* \"#utility.yul\":902:955   */\n      tag_72\n        /* \"#utility.yul\":947:954   */\n      dup6\n        /* \"#utility.yul\":938:944   */\n      dup3\n        /* \"#utility.yul\":927:936   */\n      dup7\n        /* \"#utility.yul\":923:945   */\n      add\n        /* \"#utility.yul\":902:955   */\n      tag_62\n      jump\t// in\n    tag_72:\n        /* \"#utility.yul\":892:955   */\n      swap2\n      pop\n        /* \"#utility.yul\":847:965   */\n      pop\n        /* \"#utility.yul\":648:972   */\n      swap3\n      pop\n      swap3\n      swap1\n      pop\n      jump\t// out\n        /* \"#utility.yul\":978:1240   */\n    tag_15:\n        /* \"#utility.yul\":1037:1043   */\n      0x00\n        /* \"#utility.yul\":1086:1088   */\n      0x20\n        /* \"#utility.yul\":1074:1083   */\n      dup3\n        /* \"#utility.yul\":1065:1072   */\n      dup5\n        /* \"#utility.yul\":1061:1084   */\n      sub\n        /* \"#utility.yul\":1057:1089   */\n      slt\n        /* \"#utility.yul\":1054:1056   */\n      iszero\n      tag_74\n      jumpi\n        /* \"#utility.yul\":1102:1103   */\n      0x00\n        /* \"#utility.yul\":1099:1100   */\n      dup1\n        /* \"#utility.yul\":1092:1104   */\n      revert\n        /* \"#utility.yul\":1054:1056   */\n    tag_74:\n        /* \"#utility.yul\":1145:1146   */\n      0x00\n        /* \"#utility.yul\":1170:1223   */\n      tag_75\n        /* \"#utility.yul\":1215:1222   */\n      dup5\n        /* \"#utility.yul\":1206:1212   */\n      dup3\n        /* \"#utility.yul\":1195:1204   */\n      dup6\n        /* \"#utility.yul\":1191:1213   */\n      add\n        /* \"#utility.yul\":1170:1223   */\n      tag_62\n      jump\t// in\n    tag_75:\n        /* \"#utility.yul\":1160:1223   */\n      swap2\n      pop\n        /* \"#utility.yul\":1116:1233   */\n      pop\n        /* \"#utility.yul\":1044:1240   */\n      swap3\n      swap2\n      pop\n      pop\n      jump\t// out\n        /* \"#utility.yul\":1246:1611   */\n    tag_76:\n        /* \"#utility.yul\":1388:1391   */\n      0x00\n        /* \"#utility.yul\":1409:1475   */\n      tag_78\n        /* \"#utility.yul\":1473:1474   */\n      0x03\n        /* \"#utility.yul\":1468:1471   */\n      dup4\n        /* \"#utility.yul\":1409:1475   */\n      tag_79\n      jump\t// in\n    tag_78:\n        /* \"#utility.yul\":1402:1475   */\n      swap2\n      pop\n        /* \"#utility.yul\":1484:1577   */\n      tag_80\n        /* \"#utility.yul\":1573:1576   */\n      dup3\n        /* \"#utility.yul\":1484:1577   */\n      tag_81\n      jump\t// in\n    tag_80:\n        /* \"#utility.yul\":1602:1604   */\n      0x20\n        /* \"#utility.yul\":1597:1600   */\n      dup3\n        /* \"#utility.yul\":1593:1605   */\n      add\n        /* \"#utility.yul\":1586:1605   */\n      swap1\n      pop\n        /* \"#utility.yul\":1392:1611   */\n      swap2\n      swap1\n      pop\n      jump\t// out\n        /* \"#utility.yul\":1617:1982   */\n    tag_82:\n        /* \"#utility.yul\":1759:1762   */\n      0x00\n        /* \"#utility.yul\":1780:1846   */\n      tag_84\n        /* \"#utility.yul\":1844:1845   */\n      0x03\n        /* \"#utility.yul\":1839:1842   */\n      dup4\n        /* \"#utility.yul\":1780:1846   */\n      tag_79\n      jump\t// in\n    tag_84:\n        /* \"#utility.yul\":1773:1846   */\n      swap2\n      pop\n        /* \"#utility.yul\":1855:1948   */\n      tag_85\n        /* \"#utility.yul\":1944:1947   */\n      dup3\n        /* \"#utility.yul\":1855:1948   */\n      tag_86\n      jump\t// in\n    tag_85:\n        /* \"#utility.yul\":1973:1975   */\n      0x20\n        /* \"#utility.yul\":1968:1971   */\n      dup3\n        /* \"#utility.yul\":1964:1976   */\n      add\n        /* \"#utility.yul\":1957:1976   */\n      swap1\n      pop\n        /* \"#utility.yul\":1763:1982   */\n      swap2\n      swap1\n      pop\n      jump\t// out\n        /* \"#utility.yul\":1988:2353   */\n    tag_87:\n        /* \"#utility.yul\":2130:2133   */\n      0x00\n        /* \"#utility.yul\":2151:2217   */\n      tag_89\n        /* \"#utility.yul\":2215:2216   */\n      0x03\n        /* \"#utility.yul\":2210:2213   */\n      dup4\n        /* \"#utility.yul\":2151:2217   */\n      tag_79\n      jump\t// in\n    tag_89:\n        /* \"#utility.yul\":2144:2217   */\n      swap2\n      pop\n        /* \"#utility.yul\":2226:2319   */\n      tag_90\n        /* \"#utility.yul\":2315:2318   */\n      dup3\n        /* \"#utility.yul\":2226:2319   */\n      tag_91\n      jump\t// in\n    tag_90:\n        /* \"#utility.yul\":2344:2346   */\n      0x20\n        /* \"#utility.yul\":2339:2342   */\n      dup3\n        /* \"#utility.yul\":2335:2347   */\n      add\n        /* \"#utility.yul\":2328:2347   */\n      swap1\n      pop\n        /* \"#utility.yul\":2134:2353   */\n      swap2\n      swap1\n      pop\n      jump\t// out\n        /* \"#utility.yul\":2359:2724   */\n    tag_92:\n        /* \"#utility.yul\":2501:2504   */\n      0x00\n        /* \"#utility.yul\":2522:2588   */\n      tag_94\n        /* \"#utility.yul\":2586:2587   */\n      0x03\n        /* \"#utility.yul\":2581:2584   */\n      dup4\n        /* \"#utility.yul\":2522:2588   */\n      tag_79\n      jump\t// in\n    tag_94:\n        /* \"#utility.yul\":2515:2588   */\n      swap2\n      pop\n        /* \"#utility.yul\":2597:2690   */\n      tag_95\n        /* \"#utility.yul\":2686:2689   */\n      dup3\n        /* \"#utility.yul\":2597:2690   */\n      tag_96\n      jump\t// in\n    tag_95:\n        /* \"#utility.yul\":2715:2717   */\n      0x20\n        /* \"#utility.yul\":2710:2713   */\n      dup3\n        /* \"#utility.yul\":2706:2718   */\n      add\n        /* \"#utility.yul\":2699:2718   */\n      swap1\n      pop\n        /* \"#utility.yul\":2505:2724   */\n      swap2\n      swap1\n      pop\n      jump\t// out\n        /* \"#utility.yul\":2730:3128   */\n    tag_97:\n        /* \"#utility.yul\":2889:2892   */\n      0x00\n        /* \"#utility.yul\":2910:2993   */\n      tag_99\n        /* \"#utility.yul\":2991:2992   */\n      0x00\n        /* \"#utility.yul\":2986:2989   */\n      dup4\n        /* \"#utility.yul\":2910:2993   */\n      tag_100\n      jump\t// in\n    tag_99:\n        /* \"#utility.yul\":2903:2993   */\n      swap2\n      pop\n        /* \"#utility.yul\":3002:3095   */\n      tag_101\n        /* \"#utility.yul\":3091:3094   */\n      dup3\n        /* \"#utility.yul\":3002:3095   */\n      tag_102\n      jump\t// in\n    tag_101:\n        /* \"#utility.yul\":3120:3121   */\n      0x00\n        /* \"#utility.yul\":3115:3118   */\n      dup3\n        /* \"#utility.yul\":3111:3122   */\n      add\n        /* \"#utility.yul\":3104:3122   */\n      swap1\n      pop\n        /* \"#utility.yul\":2893:3128   */\n      swap2\n      swap1\n      pop\n      jump\t// out\n        /* \"#utility.yul\":3134:3252   */\n    tag_103:\n        /* \"#utility.yul\":3221:3245   */\n      tag_105\n        /* \"#utility.yul\":3239:3244   */\n      dup2\n        /* \"#utility.yul\":3221:3245   */\n      tag_106\n      jump\t// in\n    tag_105:\n        /* \"#utility.yul\":3216:3219   */\n      dup3\n        /* \"#utility.yul\":3209:3246   */\n      mstore\n        /* \"#utility.yul\":3199:3252   */\n      pop\n      pop\n      jump\t// out\n        /* \"#utility.yul\":3258:3637   */\n    tag_38:\n        /* \"#utility.yul\":3442:3445   */\n      0x00\n        /* \"#utility.yul\":3464:3611   */\n      tag_108\n        /* \"#utility.yul\":3607:3610   */\n      dup3\n        /* \"#utility.yul\":3464:3611   */\n      tag_97\n      jump\t// in\n    tag_108:\n        /* \"#utility.yul\":3457:3611   */\n      swap2\n      pop\n        /* \"#utility.yul\":3628:3631   */\n      dup2\n        /* \"#utility.yul\":3621:3631   */\n      swap1\n      pop\n        /* \"#utility.yul\":3446:3637   */\n      swap2\n      swap1\n      pop\n      jump\t// out\n        /* \"#utility.yul\":3643:4062   */\n    tag_44:\n        /* \"#utility.yul\":3809:3813   */\n      0x00\n        /* \"#utility.yul\":3847:3849   */\n      0x20\n        /* \"#utility.yul\":3836:3845   */\n      dup3\n        /* \"#utility.yul\":3832:3850   */\n      add\n        /* \"#utility.yul\":3824:3850   */\n      swap1\n      pop\n        /* \"#utility.yul\":3896:3905   */\n      dup2\n        /* \"#utility.yul\":3890:3894   */\n      dup2\n        /* \"#utility.yul\":3886:3906   */\n      sub\n        /* \"#utility.yul\":3882:3883   */\n      0x00\n        /* \"#utility.yul\":3871:3880   */\n      dup4\n        /* \"#utility.yul\":3867:3884   */\n      add\n        /* \"#utility.yul\":3860:3907   */\n      mstore\n        /* \"#utility.yul\":3924:4055   */\n      tag_110\n        /* \"#utility.yul\":4050:4054   */\n      dup2\n        /* \"#utility.yul\":3924:4055   */\n      tag_76\n      jump\t// in\n    tag_110:\n        /* \"#utility.yul\":3916:4055   */\n      swap1\n      pop\n        /* \"#utility.yul\":3814:4062   */\n      swap2\n      swap1\n      pop\n      jump\t// out\n        /* \"#utility.yul\":4068:4487   */\n    tag_51:\n        /* \"#utility.yul\":4234:4238   */\n      0x00\n        /* \"#utility.yul\":4272:4274   */\n      0x20\n        /* \"#utility.yul\":4261:4270   */\n      dup3\n        /* \"#utility.yul\":4257:4275   */\n      add\n        /* \"#utility.yul\":4249:4275   */\n      swap1\n      pop\n        /* \"#utility.yul\":4321:4330   */\n      dup2\n        /* \"#utility.yul\":4315:4319   */\n      dup2\n        /* \"#utility.yul\":4311:4331   */\n      sub\n        /* \"#utility.yul\":4307:4308   */\n      0x00\n        /* \"#utility.yul\":4296:4305   */\n      dup4\n        /* \"#utility.yul\":4292:4309   */\n      add\n        /* \"#utility.yul\":4285:4332   */\n      mstore\n        /* \"#utility.yul\":4349:4480   */\n      tag_112\n        /* \"#utility.yul\":4475:4479   */\n      dup2\n        /* \"#utility.yul\":4349:4480   */\n      tag_82\n      jump\t// in\n    tag_112:\n        /* \"#utility.yul\":4341:4480   */\n      swap1\n      pop\n        /* \"#utility.yul\":4239:4487   */\n      swap2\n      swap1\n      pop\n      jump\t// out\n        /* \"#utility.yul\":4493:4912   */\n    tag_34:\n        /* \"#utility.yul\":4659:4663   */\n      0x00\n        /* \"#utility.yul\":4697:4699   */\n      0x20\n        /* \"#utility.yul\":4686:4695   */\n      dup3\n        /* \"#utility.yul\":4682:4700   */\n      add\n        /* \"#utility.yul\":4674:4700   */\n      swap1\n      pop\n        /* \"#utility.yul\":4746:4755   */\n      dup2\n        /* \"#utility.yul\":4740:4744   */\n      dup2\n        /* \"#utility.yul\":4736:4756   */\n      sub\n        /* \"#utility.yul\":4732:4733   */\n      0x00\n        /* \"#utility.yul\":4721:4730   */\n      dup4\n        /* \"#utility.yul\":4717:4734   */\n      add\n        /* \"#utility.yul\":4710:4757   */\n      mstore\n        /* \"#utility.yul\":4774:4905   */\n      tag_114\n        /* \"#utility.yul\":4900:4904   */\n      dup2\n        /* \"#utility.yul\":4774:4905   */\n      tag_87\n      jump\t// in\n    tag_114:\n        /* \"#utility.yul\":4766:4905   */\n      swap1\n      pop\n        /* \"#utility.yul\":4664:4912   */\n      swap2\n      swap1\n      pop\n      jump\t// out\n        /* \"#utility.yul\":4918:5337   */\n    tag_48:\n        /* \"#utility.yul\":5084:5088   */\n      0x00\n        /* \"#utility.yul\":5122:5124   */\n      0x20\n        /* \"#utility.yul\":5111:5120   */\n      dup3\n        /* \"#utility.yul\":5107:5125   */\n      add\n        /* \"#utility.yul\":5099:5125   */\n      swap1\n      pop\n        /* \"#utility.yul\":5171:5180   */\n      dup2\n        /* \"#utility.yul\":5165:5169   */\n      dup2\n        /* \"#utility.yul\":5161:5181   */\n      sub\n        /* \"#utility.yul\":5157:5158   */\n      0x00\n        /* \"#utility.yul\":5146:5155   */\n      dup4\n        /* \"#utility.yul\":5142:5159   */\n      add\n        /* \"#utility.yul\":5135:5182   */\n      mstore\n        /* \"#utility.yul\":5199:5330   */\n      tag_116\n        /* \"#utility.yul\":5325:5329   */\n      dup2\n        /* \"#utility.yul\":5199:5330   */\n      tag_92\n      jump\t// in\n    tag_116:\n        /* \"#utility.yul\":5191:5330   */\n      swap1\n      pop\n        /* \"#utility.yul\":5089:5337   */\n      swap2\n      swap1\n      pop\n      jump\t// out\n        /* \"#utility.yul\":5343:5565   */\n    tag_11:\n        /* \"#utility.yul\":5436:5440   */\n      0x00\n        /* \"#utility.yul\":5474:5476   */\n      0x20\n        /* \"#utility.yul\":5463:5472   */\n      dup3\n        /* \"#utility.yul\":5459:5477   */\n      add\n        /* \"#utility.yul\":5451:5477   */\n      swap1\n      pop\n        /* \"#utility.yul\":5487:5558   */\n      tag_118\n        /* \"#utility.yul\":5555:5556   */\n      0x00\n        /* \"#utility.yul\":5544:5553   */\n      dup4\n        /* \"#utility.yul\":5540:5557   */\n      add\n        /* \"#utility.yul\":5531:5537   */\n      dup5\n        /* \"#utility.yul\":5487:5558   */\n      tag_103\n      jump\t// in\n    tag_118:\n        /* \"#utility.yul\":5441:5565   */\n      swap3\n      swap2\n      pop\n      pop\n      jump\t// out\n        /* \"#utility.yul\":5571:5718   */\n    tag_100:\n        /* \"#utility.yul\":5672:5683   */\n      0x00\n        /* \"#utility.yul\":5709:5712   */\n      dup2\n        /* \"#utility.yul\":5694:5712   */\n      swap1\n      pop\n        /* \"#utility.yul\":5684:5718   */\n      swap3\n      swap2\n      pop\n      pop\n      jump\t// out\n        /* \"#utility.yul\":5724:5893   */\n    tag_79:\n        /* \"#utility.yul\":5808:5819   */\n      0x00\n        /* \"#utility.yul\":5842:5848   */\n      dup3\n        /* \"#utility.yul\":5837:5840   */\n      dup3\n        /* \"#utility.yul\":5830:5849   */\n      mstore\n        /* \"#utility.yul\":5882:5886   */\n      0x20\n        /* \"#utility.yul\":5877:5880   */\n      dup3\n        /* \"#utility.yul\":5873:5887   */\n      add\n        /* \"#utility.yul\":5858:5887   */\n      swap1\n      pop\n        /* \"#utility.yul\":5820:5893   */\n      swap3\n      swap2\n      pop\n      pop\n      jump\t// out\n        /* \"#utility.yul\":5899:6204   */\n    tag_54:\n        /* \"#utility.yul\":5939:5942   */\n      0x00\n        /* \"#utility.yul\":5958:5978   */\n      tag_122\n        /* \"#utility.yul\":5976:5977   */\n      dup3\n        /* \"#utility.yul\":5958:5978   */\n      tag_106\n      jump\t// in\n    tag_122:\n        /* \"#utility.yul\":5953:5978   */\n      swap2\n      pop\n        /* \"#utility.yul\":5992:6012   */\n      tag_123\n        /* \"#utility.yul\":6010:6011   */\n      dup4\n        /* \"#utility.yul\":5992:6012   */\n      tag_106\n      jump\t// in\n    tag_123:\n        /* \"#utility.yul\":5987:6012   */\n      swap3\n      pop\n        /* \"#utility.yul\":6146:6147   */\n      dup3\n        /* \"#utility.yul\":6078:6144   */\n      0xffffffffffffffffffffffffffffffffffffffffffffffffffffffffffffffff\n        /* \"#utility.yul\":6074:6148   */\n      sub\n        /* \"#utility.yul\":6071:6072   */\n      dup3\n        /* \"#utility.yul\":6068:6149   */\n      gt\n        /* \"#utility.yul\":6065:6067   */\n      iszero\n      tag_124\n      jumpi\n        /* \"#utility.yul\":6152:6170   */\n      tag_125\n      tag_126\n      jump\t// in\n    tag_125:\n        /* \"#utility.yul\":6065:6067   */\n    tag_124:\n        /* \"#utility.yul\":6196:6197   */\n      dup3\n        /* \"#utility.yul\":6193:6194   */\n      dup3\n        /* \"#utility.yul\":6189:6198   */\n      add\n        /* \"#utility.yul\":6182:6198   */\n      swap1\n      pop\n        /* \"#utility.yul\":5943:6204   */\n      swap3\n      swap2\n      pop\n      pop\n      jump\t// out\n        /* \"#utility.yul\":6210:6401   */\n    tag_36:\n        /* \"#utility.yul\":6250:6254   */\n      0x00\n        /* \"#utility.yul\":6270:6290   */\n      tag_128\n        /* \"#utility.yul\":6288:6289   */\n      dup3\n        /* \"#utility.yul\":6270:6290   */\n      tag_106\n      jump\t// in\n    tag_128:\n        /* \"#utility.yul\":6265:6290   */\n      swap2\n      pop\n        /* \"#utility.yul\":6304:6324   */\n      tag_129\n        /* \"#utility.yul\":6322:6323   */\n      dup4\n        /* \"#utility.yul\":6304:6324   */\n      tag_106\n      jump\t// in\n    tag_129:\n        /* \"#utility.yul\":6299:6324   */\n      swap3\n      pop\n        /* \"#utility.yul\":6343:6344   */\n      dup3\n        /* \"#utility.yul\":6340:6341   */\n      dup3\n        /* \"#utility.yul\":6337:6345   */\n      lt\n        /* \"#utility.yul\":6334:6336   */\n      iszero\n      tag_130\n      jumpi\n        /* \"#utility.yul\":6348:6366   */\n      tag_131\n      tag_126\n      jump\t// in\n    tag_131:\n        /* \"#utility.yul\":6334:6336   */\n    tag_130:\n        /* \"#utility.yul\":6393:6394   */\n      dup3\n        /* \"#utility.yul\":6390:6391   */\n      dup3\n        /* \"#utility.yul\":6386:6395   */\n      sub\n        /* \"#utility.yul\":6378:6395   */\n      swap1\n      pop\n        /* \"#utility.yul\":6255:6401   */\n      swap3\n      swap2\n      pop\n      pop\n      jump\t// out\n        /* \"#utility.yul\":6407:6503   */\n    tag_132:\n        /* \"#utility.yul\":6444:6451   */\n      0x00\n        /* \"#utility.yul\":6473:6497   */\n      tag_134\n        /* \"#utility.yul\":6491:6496   */\n      dup3\n        /* \"#utility.yul\":6473:6497   */\n      tag_135\n      jump\t// in\n    tag_134:\n        /* \"#utility.yul\":6462:6497   */\n      swap1\n      pop\n        /* \"#utility.yul\":6452:6503   */\n      swap2\n      swap1\n      pop\n      jump\t// out\n        /* \"#utility.yul\":6509:6635   */\n    tag_135:\n        /* \"#utility.yul\":6546:6553   */\n      0x00\n        /* \"#utility.yul\":6586:6628   */\n      0xffffffffffffffffffffffffffffffffffffffff\n        /* \"#utility.yul\":6579:6584   */\n      dup3\n        /* \"#utility.yul\":6575:6629   */\n      and\n        /* \"#utility.yul\":6564:6629   */\n      swap1\n      pop\n        /* \"#utility.yul\":6554:6635   */\n      swap2\n      swap1\n      pop\n      jump\t// out\n        /* \"#utility.yul\":6641:6718   */\n    tag_106:\n        /* \"#utility.yul\":6678:6685   */\n      0x00\n        /* \"#utility.yul\":6707:6712   */\n      dup2\n        /* \"#utility.yul\":6696:6712   */\n      swap1\n      pop\n        /* \"#utility.yul\":6686:6718   */\n      swap2\n      swap1\n      pop\n      jump\t// out\n        /* \"#utility.yul\":6724:6904   */\n    tag_126:\n        /* \"#utility.yul\":6772:6849   */\n      0x4e487b7100000000000000000000000000000000000000000000000000000000\n        /* \"#utility.yul\":6769:6770   */\n      0x00\n        /* \"#utility.yul\":6762:6850   */\n      mstore\n        /* \"#utility.yul\":6869:6873   */\n      0x11\n        /* \"#utility.yul\":6866:6867   */\n      0x04\n        /* \"#utility.yul\":6859:6874   */\n      mstore\n        /* \"#utility.yul\":6893:6897   */\n      0x24\n        /* \"#utility.yul\":6890:6891   */\n      0x00\n        /* \"#utility.yul\":6883:6898   */\n      revert\n        /* \"#utility.yul\":6910:7063   */\n    tag_81:\n        /* \"#utility.yul\":7050:7055   */\n      0x6262620000000000000000000000000000000000000000000000000000000000\n        /* \"#utility.yul\":7046:7047   */\n      0x00\n        /* \"#utility.yul\":7038:7044   */\n      dup3\n        /* \"#utility.yul\":7034:7048   */\n      add\n        /* \"#utility.yul\":7027:7056   */\n      mstore\n        /* \"#utility.yul\":7016:7063   */\n      pop\n      jump\t// out\n        /* \"#utility.yul\":7069:7222   */\n    tag_86:\n        /* \"#utility.yul\":7209:7214   */\n      0x6464640000000000000000000000000000000000000000000000000000000000\n        /* \"#utility.yul\":7205:7206   */\n      0x00\n        /* \"#utility.yul\":7197:7203   */\n      dup3\n        /* \"#utility.yul\":7193:7207   */\n      add\n        /* \"#utility.yul\":7186:7215   */\n      mstore\n        /* \"#utility.yul\":7175:7222   */\n      pop\n      jump\t// out\n        /* \"#utility.yul\":7228:7381   */\n    tag_91:\n        /* \"#utility.yul\":7368:7373   */\n      0x6161610000000000000000000000000000000000000000000000000000000000\n        /* \"#utility.yul\":7364:7365   */\n      0x00\n        /* \"#utility.yul\":7356:7362   */\n      dup3\n        /* \"#utility.yul\":7352:7366   */\n      add\n        /* \"#utility.yul\":7345:7374   */\n      mstore\n        /* \"#utility.yul\":7334:7381   */\n      pop\n      jump\t// out\n        /* \"#utility.yul\":7387:7540   */\n    tag_96:\n        /* \"#utility.yul\":7527:7532   */\n      0x6363630000000000000000000000000000000000000000000000000000000000\n        /* \"#utility.yul\":7523:7524   */\n      0x00\n        /* \"#utility.yul\":7515:7521   */\n      dup3\n        /* \"#utility.yul\":7511:7525   */\n      add\n        /* \"#utility.yul\":7504:7533   */\n      mstore\n        /* \"#utility.yul\":7493:7540   */\n      pop\n      jump\t// out\n        /* \"#utility.yul\":7546:7660   */\n    tag_102:\n        /* \"#utility.yul\":7652:7660   */\n      pop\n      jump\t// out\n        /* \"#utility.yul\":7666:7788   */\n    tag_61:\n        /* \"#utility.yul\":7739:7763   */\n      tag_145\n        /* \"#utility.yul\":7757:7762   */\n      dup2\n        /* \"#utility.yul\":7739:7763   */\n      tag_132\n      jump\t// in\n    tag_145:\n        /* \"#utility.yul\":7732:7737   */\n      dup2\n        /* \"#utility.yul\":7729:7764   */\n      eq\n        /* \"#utility.yul\":7719:7721   */\n      tag_146\n      jumpi\n        /* \"#utility.yul\":7778:7779   */\n      0x00\n        /* \"#utility.yul\":7775:7776   */\n      dup1\n        /* \"#utility.yul\":7768:7780   */\n      revert\n        /* \"#utility.yul\":7719:7721   */\n    tag_146:\n        /* \"#utility.yul\":7709:7788   */\n      pop\n      jump\t// out\n        /* \"#utility.yul\":7794:7916   */\n    tag_65:\n        /* \"#utility.yul\":7867:7891   */\n      tag_148\n        /* \"#utility.yul\":7885:7890   */\n      dup2\n        /* \"#utility.yul\":7867:7891   */\n      tag_106\n      jump\t// in\n    tag_148:\n        /* \"#utility.yul\":7860:7865   */\n      dup2\n        /* \"#utility.yul\":7857:7892   */\n      eq\n        /* \"#utility.yul\":7847:7849   */\n      tag_149\n      jumpi\n        /* \"#utility.yul\":7906:7907   */\n      0x00\n        /* \"#utility.yul\":7903:7904   */\n      dup1\n        /* \"#utility.yul\":7896:7908   */\n      revert\n        /* \"#utility.yul\":7847:7849   */\n    tag_149:\n        /* \"#utility.yul\":7837:7916   */\n      pop\n      jump\t// out\n\n    auxdata: 0xa26469706673582212208a4289ee835735a45b30af442655bfd55345a79a2910f4a268ba9d0f0d22c1b964736f6c63430008040033\n}\n",
				"bytecode": {
					"linkReferences": {},
					"object": "608060405234801561001057600080fd5b5061092e806100206000396000f3fe60806040526004361061004a5760003560e01c806312065fe01461004f5780632e1a7d4d1461007a578063a9059cbb146100a3578063d0e30db0146100cc578063e3d670d7146100d6575b600080fd5b34801561005b57600080fd5b50610064610113565b60405161007191906106f7565b60405180910390f35b34801561008657600080fd5b506100a1600480360381019061009c919061057b565b610159565b005b3480156100af57600080fd5b506100ca60048036038101906100c5919061053f565b6102df565b005b6100d461047d565b005b3480156100e257600080fd5b506100fd60048036038101906100f89190610516565b6104d4565b60405161010a91906106f7565b60405180910390f35b60008060003373ffffffffffffffffffffffffffffffffffffffff1673ffffffffffffffffffffffffffffffffffffffff16815260200190815260200160002054905090565b806000803373ffffffffffffffffffffffffffffffffffffffff1673ffffffffffffffffffffffffffffffffffffffff1681526020019081526020016000205410156101da576040517f08c379a00000000000000000000000000000000000000000000000000000000081526004016101d1906106b7565b60405180910390fd5b806000803373ffffffffffffffffffffffffffffffffffffffff1673ffffffffffffffffffffffffffffffffffffffff16815260200190815260200160002060008282546102289190610784565b9250508190555060003373ffffffffffffffffffffffffffffffffffffffff168260405161025590610662565b60006040518083038185875af1925050503d8060008114610292576040519150601f19603f3d011682016040523d82523d6000602084013e610297565b606091505b50509050806102db576040517f08c379a00000000000000000000000000000000000000000000000000000000081526004016102d290610677565b60405180910390fd5b5050565b806000803373ffffffffffffffffffffffffffffffffffffffff1673ffffffffffffffffffffffffffffffffffffffff168152602001908152602001600020541015610360576040517f08c379a0000000000000000000000000000000000000000000000000000000008152600401610357906106d7565b60405180910390fd5b8173ffffffffffffffffffffffffffffffffffffffff163373ffffffffffffffffffffffffffffffffffffffff1614156103cf576040517f08c379a00000000000000000000000000000000000000000000000000000000081526004016103c690610697565b60405180910390fd5b806000803373ffffffffffffffffffffffffffffffffffffffff1673ffffffffffffffffffffffffffffffffffffffff168152602001908152602001600020600082825461041d9190610784565b92505081905550806000808473ffffffffffffffffffffffffffffffffffffffff1673ffffffffffffffffffffffffffffffffffffffff1681526020019081526020016000206000828254610472919061072e565b925050819055505050565b346000803373ffffffffffffffffffffffffffffffffffffffff1673ffffffffffffffffffffffffffffffffffffffff16815260200190815260200160002060008282546104cb919061072e565b92505081905550565b60006020528060005260406000206000915090505481565b6000813590506104fb816108ca565b92915050565b600081359050610510816108e1565b92915050565b60006020828403121561052857600080fd5b6000610536848285016104ec565b91505092915050565b6000806040838503121561055257600080fd5b6000610560858286016104ec565b925050602061057185828601610501565b9150509250929050565b60006020828403121561058d57600080fd5b600061059b84828501610501565b91505092915050565b60006105b160038361071d565b91506105bc82610823565b602082019050919050565b60006105d460038361071d565b91506105df8261084c565b602082019050919050565b60006105f760038361071d565b915061060282610875565b602082019050919050565b600061061a60038361071d565b91506106258261089e565b602082019050919050565b600061063d600083610712565b9150610648826108c7565b600082019050919050565b61065c816107ea565b82525050565b600061066d82610630565b9150819050919050565b60006020820190508181036000830152610690816105a4565b9050919050565b600060208201905081810360008301526106b0816105c7565b9050919050565b600060208201905081810360008301526106d0816105ea565b9050919050565b600060208201905081810360008301526106f08161060d565b9050919050565b600060208201905061070c6000830184610653565b92915050565b600081905092915050565b600082825260208201905092915050565b6000610739826107ea565b9150610744836107ea565b9250827fffffffffffffffffffffffffffffffffffffffffffffffffffffffffffffffff03821115610779576107786107f4565b5b828201905092915050565b600061078f826107ea565b915061079a836107ea565b9250828210156107ad576107ac6107f4565b5b828203905092915050565b60006107c3826107ca565b9050919050565b600073ffffffffffffffffffffffffffffffffffffffff82169050919050565b6000819050919050565b7f4e487b7100000000000000000000000000000000000000000000000000000000600052601160045260246000fd5b7f6262620000000000000000000000000000000000000000000000000000000000600082015250565b7f6464640000000000000000000000000000000000000000000000000000000000600082015250565b7f6161610000000000000000000000000000000000000000000000000000000000600082015250565b7f6363630000000000000000000000000000000000000000000000000000000000600082015250565b50565b6108d3816107b8565b81146108de57600080fd5b50565b6108ea816107ea565b81146108f557600080fd5b5056fea26469706673582212208a4289ee835735a45b30af442655bfd55345a79a2910f4a268ba9d0f0d22c1b964736f6c63430008040033",
					"opcodes": "PUSH1 0x80 PUSH1 0x40 MSTORE CALLVALUE DUP1 ISZERO PUSH2 0x10 JUMPI PUSH1 0x0 DUP1 REVERT JUMPDEST POP PUSH2 0x92E DUP1 PUSH2 0x20 PUSH1 0x0 CODECOPY PUSH1 0x0 RETURN INVALID PUSH1 0x80 PUSH1 0x40 MSTORE PUSH1 0x4 CALLDATASIZE LT PUSH2 0x4A JUMPI PUSH1 0x0 CALLDATALOAD PUSH1 0xE0 SHR DUP1 PUSH4 0x12065FE0 EQ PUSH2 0x4F JUMPI DUP1 PUSH4 0x2E1A7D4D EQ PUSH2 0x7A JUMPI DUP1 PUSH4 0xA9059CBB EQ PUSH2 0xA3 JUMPI DUP1 PUSH4 0xD0E30DB0 EQ PUSH2 0xCC JUMPI DUP1 PUSH4 0xE3D670D7 EQ PUSH2 0xD6 JUMPI JUMPDEST PUSH1 0x0 DUP1 REVERT JUMPDEST CALLVALUE DUP1 ISZERO PUSH2 0x5B JUMPI PUSH1 0x0 DUP1 REVERT JUMPDEST POP PUSH2 0x64 PUSH2 0x113 JUMP JUMPDEST PUSH1 0x40 MLOAD PUSH2 0x71 SWAP2 SWAP1 PUSH2 0x6F7 JUMP JUMPDEST PUSH1 0x40 MLOAD DUP1 SWAP2 SUB SWAP1 RETURN JUMPDEST CALLVALUE DUP1 ISZERO PUSH2 0x86 JUMPI PUSH1 0x0 DUP1 REVERT JUMPDEST POP PUSH2 0xA1 PUSH1 0x4 DUP1 CALLDATASIZE SUB DUP2 ADD SWAP1 PUSH2 0x9C SWAP2 SWAP1 PUSH2 0x57B JUMP JUMPDEST PUSH2 0x159 JUMP JUMPDEST STOP JUMPDEST CALLVALUE DUP1 ISZERO PUSH2 0xAF JUMPI PUSH1 0x0 DUP1 REVERT JUMPDEST POP PUSH2 0xCA PUSH1 0x4 DUP1 CALLDATASIZE SUB DUP2 ADD SWAP1 PUSH2 0xC5 SWAP2 SWAP1 PUSH2 0x53F JUMP JUMPDEST PUSH2 0x2DF JUMP JUMPDEST STOP JUMPDEST PUSH2 0xD4 PUSH2 0x47D JUMP JUMPDEST STOP JUMPDEST CALLVALUE DUP1 ISZERO PUSH2 0xE2 JUMPI PUSH1 0x0 DUP1 REVERT JUMPDEST POP PUSH2 0xFD PUSH1 0x4 DUP1 CALLDATASIZE SUB DUP2 ADD SWAP1 PUSH2 0xF8 SWAP2 SWAP1 PUSH2 0x516 JUMP JUMPDEST PUSH2 0x4D4 JUMP JUMPDEST PUSH1 0x40 MLOAD PUSH2 0x10A SWAP2 SWAP1 PUSH2 0x6F7 JUMP JUMPDEST PUSH1 0x40 MLOAD DUP1 SWAP2 SUB SWAP1 RETURN JUMPDEST PUSH1 0x0 DUP1 PUSH1 0x0 CALLER PUSH20 0xFFFFFFFFFFFFFFFFFFFFFFFFFFFFFFFFFFFFFFFF AND PUSH20 0xFFFFFFFFFFFFFFFFFFFFFFFFFFFFFFFFFFFFFFFF AND DUP2 MSTORE PUSH1 0x20 ADD SWAP1 DUP2 MSTORE PUSH1 0x20 ADD PUSH1 0x0 KECCAK256 SLOAD SWAP1 POP SWAP1 JUMP JUMPDEST DUP1 PUSH1 0x0 DUP1 CALLER PUSH20 0xFFFFFFFFFFFFFFFFFFFFFFFFFFFFFFFFFFFFFFFF AND PUSH20 0xFFFFFFFFFFFFFFFFFFFFFFFFFFFFFFFFFFFFFFFF AND DUP2 MSTORE PUSH1 0x20 ADD SWAP1 DUP2 MSTORE PUSH1 0x20 ADD PUSH1 0x0 KECCAK256 SLOAD LT ISZERO PUSH2 0x1DA JUMPI PUSH1 0x40 MLOAD PUSH32 0x8C379A000000000000000000000000000000000000000000000000000000000 DUP2 MSTORE PUSH1 0x4 ADD PUSH2 0x1D1 SWAP1 PUSH2 0x6B7 JUMP JUMPDEST PUSH1 0x40 MLOAD DUP1 SWAP2 SUB SWAP1 REVERT JUMPDEST DUP1 PUSH1 0x0 DUP1 CALLER PUSH20 0xFFFFFFFFFFFFFFFFFFFFFFFFFFFFFFFFFFFFFFFF AND PUSH20 0xFFFFFFFFFFFFFFFFFFFFFFFFFFFFFFFFFFFFFFFF AND DUP2 MSTORE PUSH1 0x20 ADD SWAP1 DUP2 MSTORE PUSH1 0x20 ADD PUSH1 0x0 KECCAK256 PUSH1 0x0 DUP3 DUP3 SLOAD PUSH2 0x228 SWAP2 SWAP1 PUSH2 0x784 JUMP JUMPDEST SWAP3 POP POP DUP2 SWAP1 SSTORE POP PUSH1 0x0 CALLER PUSH20 0xFFFFFFFFFFFFFFFFFFFFFFFFFFFFFFFFFFFFFFFF AND DUP3 PUSH1 0x40 MLOAD PUSH2 0x255 SWAP1 PUSH2 0x662 JUMP JUMPDEST PUSH1 0x0 PUSH1 0x40 MLOAD DUP1 DUP4 SUB DUP2 DUP6 DUP8 GAS CALL SWAP3 POP POP POP RETURNDATASIZE DUP1 PUSH1 0x0 DUP2 EQ PUSH2 0x292 JUMPI PUSH1 0x40 MLOAD SWAP2 POP PUSH1 0x1F NOT PUSH1 0x3F RETURNDATASIZE ADD AND DUP3 ADD PUSH1 0x40 MSTORE RETURNDATASIZE DUP3 MSTORE RETURNDATASIZE PUSH1 0x0 PUSH1 0x20 DUP5 ADD RETURNDATACOPY PUSH2 0x297 JUMP JUMPDEST PUSH1 0x60 SWAP2 POP JUMPDEST POP POP SWAP1 POP DUP1 PUSH2 0x2DB JUMPI PUSH1 0x40 MLOAD PUSH32 0x8C379A000000000000000000000000000000000000000000000000000000000 DUP2 MSTORE PUSH1 0x4 ADD PUSH2 0x2D2 SWAP1 PUSH2 0x677 JUMP JUMPDEST PUSH1 0x40 MLOAD DUP1 SWAP2 SUB SWAP1 REVERT JUMPDEST POP POP JUMP JUMPDEST DUP1 PUSH1 0x0 DUP1 CALLER PUSH20 0xFFFFFFFFFFFFFFFFFFFFFFFFFFFFFFFFFFFFFFFF AND PUSH20 0xFFFFFFFFFFFFFFFFFFFFFFFFFFFFFFFFFFFFFFFF AND DUP2 MSTORE PUSH1 0x20 ADD SWAP1 DUP2 MSTORE PUSH1 0x20 ADD PUSH1 0x0 KECCAK256 SLOAD LT ISZERO PUSH2 0x360 JUMPI PUSH1 0x40 MLOAD PUSH32 0x8C379A000000000000000000000000000000000000000000000000000000000 DUP2 MSTORE PUSH1 0x4 ADD PUSH2 0x357 SWAP1 PUSH2 0x6D7 JUMP JUMPDEST PUSH1 0x40 MLOAD DUP1 SWAP2 SUB SWAP1 REVERT JUMPDEST DUP2 PUSH20 0xFFFFFFFFFFFFFFFFFFFFFFFFFFFFFFFFFFFFFFFF AND CALLER PUSH20 0xFFFFFFFFFFFFFFFFFFFFFFFFFFFFFFFFFFFFFFFF AND EQ ISZERO PUSH2 0x3CF JUMPI PUSH1 0x40 MLOAD PUSH32 0x8C379A000000000000000000000000000000000000000000000000000000000 DUP2 MSTORE PUSH1 0x4 ADD PUSH2 0x3C6 SWAP1 PUSH2 0x697 JUMP JUMPDEST PUSH1 0x40 MLOAD DUP1 SWAP2 SUB SWAP1 REVERT JUMPDEST DUP1 PUSH1 0x0 DUP1 CALLER PUSH20 0xFFFFFFFFFFFFFFFFFFFFFFFFFFFFFFFFFFFFFFFF AND PUSH20 0xFFFFFFFFFFFFFFFFFFFFFFFFFFFFFFFFFFFFFFFF AND DUP2 MSTORE PUSH1 0x20 ADD SWAP1 DUP2 MSTORE PUSH1 0x20 ADD PUSH1 0x0 KECCAK256 PUSH1 0x0 DUP3 DUP3 SLOAD PUSH2 0x41D SWAP2 SWAP1 PUSH2 0x784 JUMP JUMPDEST SWAP3 POP POP DUP2 SWAP1 SSTORE POP DUP1 PUSH1 0x0 DUP1 DUP5 PUSH20 0xFFFFFFFFFFFFFFFFFFFFFFFFFFFFFFFFFFFFFFFF AND PUSH20 0xFFFFFFFFFFFFFFFFFFFFFFFFFFFFFFFFFFFFFFFF AND DUP2 MSTORE PUSH1 0x20 ADD SWAP1 DUP2 MSTORE PUSH1 0x20 ADD PUSH1 0x0 KECCAK256 PUSH1 0x0 DUP3 DUP3 SLOAD PUSH2 0x472 SWAP2 SWAP1 PUSH2 0x72E JUMP JUMPDEST SWAP3 POP POP DUP2 SWAP1 SSTORE POP POP POP JUMP JUMPDEST CALLVALUE PUSH1 0x0 DUP1 CALLER PUSH20 0xFFFFFFFFFFFFFFFFFFFFFFFFFFFFFFFFFFFFFFFF AND PUSH20 0xFFFFFFFFFFFFFFFFFFFFFFFFFFFFFFFFFFFFFFFF AND DUP2 MSTORE PUSH1 0x20 ADD SWAP1 DUP2 MSTORE PUSH1 0x20 ADD PUSH1 0x0 KECCAK256 PUSH1 0x0 DUP3 DUP3 SLOAD PUSH2 0x4CB SWAP2 SWAP1 PUSH2 0x72E JUMP JUMPDEST SWAP3 POP POP DUP2 SWAP1 SSTORE POP JUMP JUMPDEST PUSH1 0x0 PUSH1 0x20 MSTORE DUP1 PUSH1 0x0 MSTORE PUSH1 0x40 PUSH1 0x0 KECCAK256 PUSH1 0x0 SWAP2 POP SWAP1 POP SLOAD DUP2 JUMP JUMPDEST PUSH1 0x0 DUP2 CALLDATALOAD SWAP1 POP PUSH2 0x4FB DUP2 PUSH2 0x8CA JUMP JUMPDEST SWAP3 SWAP2 POP POP JUMP JUMPDEST PUSH1 0x0 DUP2 CALLDATALOAD SWAP1 POP PUSH2 0x510 DUP2 PUSH2 0x8E1 JUMP JUMPDEST SWAP3 SWAP2 POP POP JUMP JUMPDEST PUSH1 0x0 PUSH1 0x20 DUP3 DUP5 SUB SLT ISZERO PUSH2 0x528 JUMPI PUSH1 0x0 DUP1 REVERT JUMPDEST PUSH1 0x0 PUSH2 0x536 DUP5 DUP3 DUP6 ADD PUSH2 0x4EC JUMP JUMPDEST SWAP2 POP POP SWAP3 SWAP2 POP POP JUMP JUMPDEST PUSH1 0x0 DUP1 PUSH1 0x40 DUP4 DUP6 SUB SLT ISZERO PUSH2 0x552 JUMPI PUSH1 0x0 DUP1 REVERT JUMPDEST PUSH1 0x0 PUSH2 0x560 DUP6 DUP3 DUP7 ADD PUSH2 0x4EC JUMP JUMPDEST SWAP3 POP POP PUSH1 0x20 PUSH2 0x571 DUP6 DUP3 DUP7 ADD PUSH2 0x501 JUMP JUMPDEST SWAP2 POP POP SWAP3 POP SWAP3 SWAP1 POP JUMP JUMPDEST PUSH1 0x0 PUSH1 0x20 DUP3 DUP5 SUB SLT ISZERO PUSH2 0x58D JUMPI PUSH1 0x0 DUP1 REVERT JUMPDEST PUSH1 0x0 PUSH2 0x59B DUP5 DUP3 DUP6 ADD PUSH2 0x501 JUMP JUMPDEST SWAP2 POP POP SWAP3 SWAP2 POP POP JUMP JUMPDEST PUSH1 0x0 PUSH2 0x5B1 PUSH1 0x3 DUP4 PUSH2 0x71D JUMP JUMPDEST SWAP2 POP PUSH2 0x5BC DUP3 PUSH2 0x823 JUMP JUMPDEST PUSH1 0x20 DUP3 ADD SWAP1 POP SWAP2 SWAP1 POP JUMP JUMPDEST PUSH1 0x0 PUSH2 0x5D4 PUSH1 0x3 DUP4 PUSH2 0x71D JUMP JUMPDEST SWAP2 POP PUSH2 0x5DF DUP3 PUSH2 0x84C JUMP JUMPDEST PUSH1 0x20 DUP3 ADD SWAP1 POP SWAP2 SWAP1 POP JUMP JUMPDEST PUSH1 0x0 PUSH2 0x5F7 PUSH1 0x3 DUP4 PUSH2 0x71D JUMP JUMPDEST SWAP2 POP PUSH2 0x602 DUP3 PUSH2 0x875 JUMP JUMPDEST PUSH1 0x20 DUP3 ADD SWAP1 POP SWAP2 SWAP1 POP JUMP JUMPDEST PUSH1 0x0 PUSH2 0x61A PUSH1 0x3 DUP4 PUSH2 0x71D JUMP JUMPDEST SWAP2 POP PUSH2 0x625 DUP3 PUSH2 0x89E JUMP JUMPDEST PUSH1 0x20 DUP3 ADD SWAP1 POP SWAP2 SWAP1 POP JUMP JUMPDEST PUSH1 0x0 PUSH2 0x63D PUSH1 0x0 DUP4 PUSH2 0x712 JUMP JUMPDEST SWAP2 POP PUSH2 0x648 DUP3 PUSH2 0x8C7 JUMP JUMPDEST PUSH1 0x0 DUP3 ADD SWAP1 POP SWAP2 SWAP1 POP JUMP JUMPDEST PUSH2 0x65C DUP2 PUSH2 0x7EA JUMP JUMPDEST DUP3 MSTORE POP POP JUMP JUMPDEST PUSH1 0x0 PUSH2 0x66D DUP3 PUSH2 0x630 JUMP JUMPDEST SWAP2 POP DUP2 SWAP1 POP SWAP2 SWAP1 POP JUMP JUMPDEST PUSH1 0x0 PUSH1 0x20 DUP3 ADD SWAP1 POP DUP2 DUP2 SUB PUSH1 0x0 DUP4 ADD MSTORE PUSH2 0x690 DUP2 PUSH2 0x5A4 JUMP JUMPDEST SWAP1 POP SWAP2 SWAP1 POP JUMP JUMPDEST PUSH1 0x0 PUSH1 0x20 DUP3 ADD SWAP1 POP DUP2 DUP2 SUB PUSH1 0x0 DUP4 ADD MSTORE PUSH2 0x6B0 DUP2 PUSH2 0x5C7 JUMP JUMPDEST SWAP1 POP SWAP2 SWAP1 POP JUMP JUMPDEST PUSH1 0x0 PUSH1 0x20 DUP3 ADD SWAP1 POP DUP2 DUP2 SUB PUSH1 0x0 DUP4 ADD MSTORE PUSH2 0x6D0 DUP2 PUSH2 0x5EA JUMP JUMPDEST SWAP1 POP SWAP2 SWAP1 POP JUMP JUMPDEST PUSH1 0x0 PUSH1 0x20 DUP3 ADD SWAP1 POP DUP2 DUP2 SUB PUSH1 0x0 DUP4 ADD MSTORE PUSH2 0x6F0 DUP2 PUSH2 0x60D JUMP JUMPDEST SWAP1 POP SWAP2 SWAP1 POP JUMP JUMPDEST PUSH1 0x0 PUSH1 0x20 DUP3 ADD SWAP1 POP PUSH2 0x70C PUSH1 0x0 DUP4 ADD DUP5 PUSH2 0x653 JUMP JUMPDEST SWAP3 SWAP2 POP POP JUMP JUMPDEST PUSH1 0x0 DUP2 SWAP1 POP SWAP3 SWAP2 POP POP JUMP JUMPDEST PUSH1 0x0 DUP3 DUP3 MSTORE PUSH1 0x20 DUP3 ADD SWAP1 POP SWAP3 SWAP2 POP POP JUMP JUMPDEST PUSH1 0x0 PUSH2 0x739 DUP3 PUSH2 0x7EA JUMP JUMPDEST SWAP2 POP PUSH2 0x744 DUP4 PUSH2 0x7EA JUMP JUMPDEST SWAP3 POP DUP3 PUSH32 0xFFFFFFFFFFFFFFFFFFFFFFFFFFFFFFFFFFFFFFFFFFFFFFFFFFFFFFFFFFFFFFFF SUB DUP3 GT ISZERO PUSH2 0x779 JUMPI PUSH2 0x778 PUSH2 0x7F4 JUMP JUMPDEST JUMPDEST DUP3 DUP3 ADD SWAP1 POP SWAP3 SWAP2 POP POP JUMP JUMPDEST PUSH1 0x0 PUSH2 0x78F DUP3 PUSH2 0x7EA JUMP JUMPDEST SWAP2 POP PUSH2 0x79A DUP4 PUSH2 0x7EA JUMP JUMPDEST SWAP3 POP DUP3 DUP3 LT ISZERO PUSH2 0x7AD JUMPI PUSH2 0x7AC PUSH2 0x7F4 JUMP JUMPDEST JUMPDEST DUP3 DUP3 SUB SWAP1 POP SWAP3 SWAP2 POP POP JUMP JUMPDEST PUSH1 0x0 PUSH2 0x7C3 DUP3 PUSH2 0x7CA JUMP JUMPDEST SWAP1 POP SWAP2 SWAP1 POP JUMP JUMPDEST PUSH1 0x0 PUSH20 0xFFFFFFFFFFFFFFFFFFFFFFFFFFFFFFFFFFFFFFFF DUP3 AND SWAP1 POP SWAP2 SWAP1 POP JUMP JUMPDEST PUSH1 0x0 DUP2 SWAP1 POP SWAP2 SWAP1 POP JUMP JUMPDEST PUSH32 0x4E487B7100000000000000000000000000000000000000000000000000000000 PUSH1 0x0 MSTORE PUSH1 0x11 PUSH1 0x4 MSTORE PUSH1 0x24 PUSH1 0x0 REVERT JUMPDEST PUSH32 0x6262620000000000000000000000000000000000000000000000000000000000 PUSH1 0x0 DUP3 ADD MSTORE POP JUMP JUMPDEST PUSH32 0x6464640000000000000000000000000000000000000000000000000000000000 PUSH1 0x0 DUP3 ADD MSTORE POP JUMP JUMPDEST PUSH32 0x6161610000000000000000000000000000000000000000000000000000000000 PUSH1 0x0 DUP3 ADD MSTORE POP JUMP JUMPDEST PUSH32 0x6363630000000000000000000000000000000000000000000000000000000000 PUSH1 0x0 DUP3 ADD MSTORE POP JUMP JUMPDEST POP JUMP JUMPDEST PUSH2 0x8D3 DUP2 PUSH2 0x7B8 JUMP JUMPDEST DUP2 EQ PUSH2 0x8DE JUMPI PUSH1 0x0 DUP1 REVERT JUMPDEST POP JUMP JUMPDEST PUSH2 0x8EA DUP2 PUSH2 0x7EA JUMP JUMPDEST DUP2 EQ PUSH2 0x8F5 JUMPI PUSH1 0x0 DUP1 REVERT JUMPDEST POP JUMP INVALID LOG2 PUSH5 0x6970667358 0x22 SLT KECCAK256 DUP11 TIMESTAMP DUP10 0xEE DUP4 JUMPI CALLDATALOAD LOG4 JUMPDEST ADDRESS 0xAF DIFFICULTY 0x26 SSTORE 0xBF 0xD5 MSTORE8 GASLIMIT 0xA7 SWAP11 0x29 LT DELEGATECALL LOG2 PUSH9 0xBA9D0F0D22C1B96473 PUSH16 0x6C634300080400330000000000000000 "
				},
				"gasEstimates": {
					"creation": {
						"codeDepositCost": "470000",
						"executionCost": "505",
						"totalCost": "470505"
					},
					"external": {
						"balance(address)": "1580",
						"deposit()": "infinite",
						"getBalance()": "1204",
						"transfer(address,uint256)": "infinite",
						"withdraw(uint256)": "infinite"
					}
				},
				"methodIdentifiers": {
					"balance(address)": "e3d670d7",
					"deposit()": "d0e30db0",
					"getBalance()": "12065fe0",
					"transfer(address,uint256)": "a9059cbb",
					"withdraw(uint256)": "2e1a7d4d"
				}
			},
			"storageLayout": {
				"storage": [
					{
						"astId": 5,
						"contract": "bank.sol:Bank",
						"label": "balance",
						"offset": 0,
						"slot": "0",
						"type": "t_mapping(t_address,t_uint256)"
					}
				],
				"types": {
					"t_address": {
						"encoding": "inplace",
						"label": "address",
						"numberOfBytes": "20"
					},
					"t_mapping(t_address,t_uint256)": {
						"encoding": "mapping",
						"key": "t_address",
						"label": "mapping(address => uint256)",
						"numberOfBytes": "32",
						"value": "t_uint256"
					},
					"t_uint256": {
						"encoding": "inplace",
						"label": "uint256",
						"numberOfBytes": "32"
					}
				}
			},
			"userdoc": {
				"kind": "user",
				"methods": {},
				"version": 1
			}
		}
	}
}